:040000008A11112828
:10000800FE00030EF0000408F1000A08F200831253
:1000180003137F08F3008A115F298A111328F50159
:10002800F601F701F80183018A114D2983120313A0
:10003800A501A11F2628A009A109A00A0319A10A40
:10004800A501A50AA31F3128A209A309A20A031919
:10005800A30A0130F4007408A506A601A701210827
:10006800200403196828A401A40AA11B4728013009
:100078000310A00DA10DFF3E031D3C280130F40024
:100088007408A407392801300310A60DA70DFF3EF8
:10009800031D482821082302031D54282008220292
:1000A800031C5D282008A2022108031CA303A30245
:1000B800261401300310A10CA00CFF3E031D5E287E
:1000C8000130A402031D4728250803197028A60932
:1000D800A709A60A0319A70A2708A101A107260844
:1000E800A001A007080083120313A501A31F8328FA
:1000F800A209A309A20A0319A30AA501A50AA11F17
:100108008A28A009A109A00A0319A10A2108200424
:100118000319B728A401A40AA11B9E2801300310C3
:10012800A00DA10DFF3E031D93280130F4007408B3
:10013800A407902821082302031DA42820082202CE
:10014800031CAC282008A2022108031CA303A30255
:1001580001300310A10CA00CFF3E031DAD28013097
:10016800A402031D9E2825080319BF28A209A30974
:10017800A20A0319A30A2308A101A1072208A001C2
:10018800A00708007608803AFF0080307F02031D30
:10019800CF28053075020318EC28831203130514C1
:1001A8000A30A0000030A1007808A301A30777084F
:1001B800A201A2078A111A208A11831203132008A8
:1001C800013E84008A1171218A1186008510062952
:1001D8008312031385140A30A0000030A1007808A8
:1001E800A301A3077708A201A2078A1177208A1121
:1001F800831203132008013E84008A1171218A1199
:10020800860005107608803AFF0080307F02031DC3
:100218000F290B307502031C0800F501F6010800D0
:1002280083120313851935297708013EF7007808EA
:100238000318013E003EF8007808803AFF0080303D
:100248007F02031D292964307702031C2D29F70139
:10025800F80183120313851935298A11C6208A11DA
:100268002D29051A08007708FF3EF70078080318BB
:10027800013EFF3EF800F81F45296330F7000030C3
:10028800F80083120313051A08008A11C6208A1180
:100298004529831603139B0107309C00FC30850019
:1002A800860181018B168B178A1114218A118A11F4
:1002B800C6208A1158290130F5070318F60A0030BC
:1002C800F6070B117308FF0072088A007108840092
:1002D800700E8300FE0E7E0E090001308A000408AD
:1002E800840A820700343F3406345B344F34663462
:0A02F8006D347D3407347F346F3419
:04400E0029FFFCFF8B
:00000001FF
